:10100000E03F00027B1100007D2000008D200000E9
:101010009D200000AD200000BD200000940BFFFDCE
:10102000000000000000000000000000015500006A
:10103000451100000000000061550000A5550000AA
:101040004B1100004B1100004B1100004B11000030
:101050004B1100004B1100004B110000795F0000A4
:101060009D5F0000C15F0000E55F000009600000B7
:101070002D60000051600000756000004B11000001
:101080004B1100004B1100004B1100004B110000F0
:101090004B1100004B1100004B1100004B110000E0
:1010A0004B1100004B1100004B110000D55C0000FB
:1010B0004B1100004B1100004B1100004B110000C0
:1010C0004B1100004B1100004B1100004B110000B0
:1010D0004B1100004B1100004B1100004B110000A0
:1010E0004B1100004B1100004B1100004B11000090
:1010F0004B1100004B1100004B1100005074000018
:1011000000000002E00000005074000000400002F7
:101110000000000050740000008000020000000089
:10112000E0000002C02F00000040000200000000AC
:101130000080000200000000FEE7FEE7FEE7FEE799
:10114000FEE7FEE7FEE7FEE7FEE7FEE70023934249
:1011500009D210B404680C600433043004319342A3
:10116000F8D310BC70477047002303E000220260F0
:10117000043304308B42F9D3704710B50E4B07E0AF
:1011800003F10C049A6859681868FFF7DFFF2346DB
:101190000A4A9342F4D306E01C46596854F8080BF7
:1011A000FFF7E2FF2346064A9342F5D30122054B9F
:1011B0001A6000F0A9FAFEE7FC1000002011000000
:1011C00038110000D8400740FFFFFFFFFFFFFFFF7F
:1011D000FFFFFFFFFFFFFFFFFFFFFFFFFFFFFFFF1F
:1011E000FFFFFFFFFFFFFFFFFFFFFFFFFFFFFFFF0F
:1011F000FFFFFFFFFFFFFFFFFFFFFFFFFFFFFFFFFF
:10120000FFFFFFFFFFFFFFFFFFFFFFFFFFFFFFFFEE
:10121000FFFFFFFFFFFFFFFFFFFFFFFFFFFFFFFFDE
:10122000FFFFFFFFFFFFFFFFFFFFFFFFFFFFFFFFCE
:10123000FFFFFFFFFFFFFFFFFFFFFFFFFFFFFFFFBE
:10124000FFFFFFFFFFFFFFFFFFFFFFFFFFFFFFFFAE
:10125000FFFFFFFFFFFFFFFFFFFFFFFFFFFFFFFF9E
:10126000FFFFFFFFFFFFFFFFFFFFFFFFFFFFFFFF8E
:10127000FFFFFFFFFFFFFFFFFFFFFFFFFFFFFFFF7E
:10128000FFFFFFFFFFFFFFFFFFFFFFFFFFFFFFFF6E
:10129000FFFFFFFFFFFFFFFFFFFFFFFFFFFFFFFF5E
:1012A000FFFFFFFFFFFFFFFFFFFFFFFFFFFFFFFF4E
:1012B000FFFFFFFFFFFFFFFFFFFFFFFFFFFFFFFF3E
:1012C000FFFFFFFFFFFFFFFFFFFFFFFFFFFFFFFF2E
:1012D000FFFFFFFFFFFFFFFFFFFFFFFFFFFFFFFF1E
:1012E000FFFFFFFFFFFFFFFFFFFFFFFFFFFFFFFF0E
:1012F000FFFFFFFFFFFFFFFFFFFFFFFFFFFFFFFFFE
:1013000000B583B0827F90F8A230B0F94001009020
:10131000024801F01DF803B05DF804FBE86A000024
:1013200070B582B01A4801F013F81A4C21881A4897
:1013300001F00EF894F8C0120131184801F008F8D5
:10134000174904F10800FFF7DBFF164904F5A67002
:10135000FFF7D6FFB4F8AC2294F8AE12124800F0B2
:10136000F7FF124904F53470FFF7CAFF94F84954A7
:1013700094F84A6494F84844052003F0C7F80090B4
:101380002346324629460A4800F0E2FF02B070BD0B
:10139000346A0000E0000002446A00005C6A000059
:1013A000686A0000706A0000786A0000986A0000AD
:1013B000A46A00002DE9F04186B022B11C46164611
:1013C0001B79022B05D0444800F0C2FF06B0BDE8EF
:1013D000F08127684149384605F008FAF8B9404DD0
:1013E000002DF3D0022E05D9237B022B24D03D48BB
:1013F00000F0AEFF6A882B88E988A8882C896E895E
:10140000B5F80CE0ED890595CDF810E0039602944F
:10141000019000913946344800F09AFFD6E73349ED
:10142000384605F0E3F908B9314DD9E73946314876
:1014300000F08EFF0025D3E7237D012BD7D1A668CE
:1014400024690FFA84F82C49304605F0CFF908B921
:101450006C80CFE72949304605F0C8F908B92C80DF
:10146000C8E72749304605F0C1F908B9EC80C1E763
:101470002449304605F0BAF908B9AC80BAE72249E8
:10148000304605F0B3F908B92C81B3E71F4930465F
:1014900005F0ACF908B96C81ACE71D49304605F0A0
:1014A000A5F938B918F1000818BF4FF00108A5F8E0
:1014B0000C809FE71749304605F098F938B918F1C4
:1014C000000818BF4FF00108A5F80E8092E73146DA
:1014D000114800F03DFF8DE798680000BC680000EF
:1014E000DC0500023869000088690000C46800005B
:1014F000EE050002D0680000E8680000F068000017
:10150000F868000000690000086900000C6900002C
:101510001069000018690000206900001120704760
:101520000220704742F23013984200D070470029E1
:10153000FCD16422014BC3F8CC22F7E7E0000002A3
:1015400010B502E0012004F0C1FD0E4B1B78002B0A
:10155000F8D00D4C022104F1080001F03DFC0221FD
:1015600004F5A67001F038FC022104F5247001F0A6
:1015700053FB022104F5327000F062F9022004F0FE
:10158000A5FDE6E704060002E000000210B5022017
:1015900004F050F938BBFFF7C3FF01461B4801F0C8
:1015A0003BF81B4C0023238084F84B3484F84C34E4
:1015B00084F84A3484F8493484F8483404F2FC410D
:1015C000201D00F053F904F20E5104F5327000F0C2
:1015D000DBF8104803F084FB052000F075FF0122C2
:1015E0000D4B1A7010BD0A4C0023A4F8FA343223B4
:1015F000A4F8F83404F2FC4000F027F904F20E508D
:1016000000F0B0F804F0C0F8C5E700BFDC6B0000E4
:10161000E0000002251500000406000238B5394834
:10162000FFF7B4FF1FE0374C04F1080001F015FE8E
:1016300004F18C0001F011FE04F5A67001F00DFE1E
:1016400004F5E87001F009FE0025257104F53470F9
:1016500001F003FE04F5557001F0FFFD84F8C85257
:10166000142004F033FD01F033F901F019F8254D91
:10167000B5F9480105F0B6F80446B5F98C0205F055
:10168000B1F80444A4B2B5F9100405F0ABF8044471
:10169000284620F8044B142100F066F9142105F5C2
:1016A000327000F09FF8052002F030FF0028BAD118
:1016B000B5F84834012BB6D195F84A34002BB2D096
:1016C00095F84B34002BAED095F84C34002BAAD0B3
:1016D0000C4C04F1080001F098FA04F18C0001F0C0
:1016E00094FA04F5A67001F090FA04F5E87001F0A0
:1016F0008CFA04F5347001F088FA04F5557001F0A5
:1017000084FAADE7E000000200B583B00F4C20463C
:1017100004F020FD002501950423009323464FF497
:10172000C0720B490B4804F0B7FC019505230093E8
:1017300023464FF4C0720849084804F0ADFC01F09C
:1017400093FF074800F004FEFBE700BFE000000243
:10175000FC6B000041150000086C00001D16000025
:10176000106C000014230381322343810123838101
:101770000023C3814FF4966242804FF4FA730380D2
:10178000C28083807047FFFF10B58AB00446C0F85E
:101790004C11124B0993023B089301330793023B10
:1017A000069341F2883305934FF47A63049340F231
:1017B000536303930A4BB3F9FA240292B3F8F83453
:1017C00001934FF40033009314230922083001F0F1
:1017D000ABFA642363600AB010BD00BF17000900B4
:1017E000E000000210B5044690F900304FF47A7220
:1017F00002FB03F20F4B83FB02039818D317C3EBD2
:10180000A013B3F57A7F04DC13F57A7F03DA0A4B71
:1018100001E04FF47A73094A9371A4F81431201D42
:1018200000F074FB10B96368002B01DC0023237007
:1018300010BD00BF0904028118FCFFFFE000000298
:1018400008B5083001F0C8FA08BD6423038143815C
:1018500000238381C38140F2DC5141804FF4FA724E
:101860000280C18082800374437470472DE9F04187
:101870008AB004460023037043708370C0F8C0121E
:1018800080F8BC3291F911306433DBB2C82B01D936
:1018900000234B74D4F8C02292F910306433DBB2C9
:1018A000C82B01D9002313742B4B0993023B0893D7
:1018B00001330793023B069341F28838CDF8148038
:1018C0004FF47A67049740F253660396234DB5F9B7
:1018D000FA340293B5F8F8340193082300930123F6
:1018E0000C22D4F8C012201D01F01EFA1C4B0993E3
:1018F0004FF00913089301330793023B0693CDF889
:10190000148004970396B5F9FA340293B5F8F834C5
:1019100001934FF4807300930B230422D4F8C01278
:1019200004F5A47001F000FA0E4B0493013B0393FD
:101930000A23029342F6E06301934FF4FA530093B3
:101940004FF4AF5319224FF4001104F5237001F046
:10195000CFF80AB0BDE8F08107000900E0000002FE
:101960000B00090009000B0038B50546D0F8C0127D
:10197000043001F051FBD5F8C01205F5A47001F058
:101980004BFB95F900104FF47A7303FB01F31D4CE8
:1019900084FB03241C44DB17C3EBA414B4F57A7F47
:1019A00004DC14F57A7F03DA174C01E04FF47A7403
:1019B0002B6823F07F4323F0FF039BB995F8BC32DB
:1019C000BBB9002105F5237001F0FAF823B2A5F8A0
:1019D0001031D5F8C022D2890AB1644223B2A5F8E9
:1019E000543238BD012105F5237001F0E9F80024D7
:1019F000ECE7003118BF012105F5237001F0E0F894
:101A00000024E3E70904028118FCFFFF00230360C0
:101A100041608360C3607047002303608360C360DC
:101A20007047036803EB0121016083680133836021
:101A300091FBF3F1C16004E00268521A0260013BBD
:101A40008360836842689342F6DC0846002901DB24
:101A50000012704701F1FF00FAE7FFFF10B586B0F2
:101A6000002300930193039304930593164AD488AB
:101A7000221D8DF80C20154A92F8282002F5B0623C
:101A8000029242228DF80020FF228DF801205F2271
:101A90008DF802200CE01A1D0B490868098901FB2A
:101AA00003F1415C06A8024402F8181C0133DBB2C2
:101AB0009AB2A242EFD30020034BD880694604F0CB
:101AC000BDF906B010BD00BFCC000002082F000217
:101AD0000A4B1B7813B10A4B1B780BB901207047D6
:101AE00000B583B002A901F8010D064800F07AFAAA
:101AF000FFF7B4FF012003B05DF804FBFC2E0002E9
:101B000028060002CC00000270B506460D460024EF
:101B100003E0305DFFF7DCFF0134AC42F9D370BD68
:101B2000704708B5402004F0ABFC092004F0FAFB34
:101B3000092004F077FC092004F08AFC002008BD8D
:101B4000016042608360002383610362C36047F6E3
:101B5000FF720261034A4261C361012380F82430AD
:101B6000704700BF0080FFFF70B590F8243063B16C
:101B7000022B01D0012309E0036A0433082B32D879
:101B8000002280F82420134600E00023002B34D0EC
:101B90008569AB1A866806EB8606B400B4FBF1F5DE
:101BA00005FB03F52D0A8261C469A21AC3681344B8
:101BB0000469A3421ADDC460046804EB8404A30032
:101BC000B3FBF1F302FB03F2C668446804EB840440
:101BD000A300B3FBF1F303FB06F31B0C03EB12436F
:101BE0002B44036270BD01230022CFE74469A34266
:101BF00001DAC460E0E7C360DEE783684268016839
:101C0000FFF79EFF70BDFFFFF0B585B0292004F0FF
:101C100009FC292004F01CFC244C204604F0CEFBD7
:101C2000234D8027C5F8A0702821312004F03AFC0C
:101C3000EF620B21322004F035FC2F630C2133209E
:101C400004F030FC08232B631A49204604F090FB73
:101C5000ADF80C0004238DF8043000268DF80560E3
:101C60008DF806600296C5F89C702721402004F08C
:101C700019FC01A9204604F083FB01238DF80030F4
:101C80008DF801308DF802608DF8033069462046EA
:101C900004F0AEFB236823F0C2031B051B0D236079
:101CA000236843F00103236005B0F0BD00800440C9
:101CB00000800F40809698002DE9F047DFF89C8166
:101CC000634DC8F80050634CC8F80440624FC8F830
:101CD0000870DFF88CA1C8F80CA0284604F018FCA6
:101CE0004FF49661284604F046FC4FF49669A8F834
:101CF00010900721712004F0D5FB00220121284615
:101D000004F017FC0026C5F804620421722004F0D8
:101D1000C9FB01220221284604F00BFCC5F8086229
:101D20001F21732004F0BEFB02220321284604F089
:101D300000FCC5F80C62852004F0C8FB03220421D6
:101D4000284604F0F6FBC5F81062862004F0BEFBBE
:101D500004220521284604F0ECFBC5F814626B68E8
:101D600023F004136B60204604F0D2FB4946204662
:101D700004F001FCA8F812900D21802004F092FBE1
:101D800032460121204604F0D4FBC4F804621C2131
:101D9000812004F087FB01220221204604F0C9FBC8
:101DA000C4F808628A2004F091FB03220421204633
:101DB00004F0BFFBC4F810628B2004F087FB042200
:101DC0000521204604F0B5FBC4F814628C2004F011
:101DD0007DFB05220621204604F0ABFBC4F8186207
:101DE000636823F004136360384604F091FB4946AE
:101DF000384604F0C0FBA8F814908F2004F066FB6E
:101E000003220421384604F094FBC7F810629020A6
:101E100004F05CFB04220521384604F08AFBC7F875
:101E200014627B6823F004137B60504604F070FB5F
:101E30004946504604F09FFBA8F81690DAF80430A3
:101E400023F00413CAF804303046BDE8F08700BF21
:101E50000080011C00C0011C0000021C0C060002D6
:101E60000040021C10B483B08DF80700B1F57A7FF2
:101E700001D94FF47A719DF80730DB080D4850F80E
:101E800023409DF8073003F007029DF80730DB0878
:101E900050F82330D3F8003203FB01F1064BA3FBCB
:101EA0000131890902F1810344F82310002003B0B5
:101EB00010BC70470C060002D34D621082B08DF842
:101EC00007009DF80730DB080C4A52F823109DF8F4
:101ED000073003F00703813351F823304FF47A7051
:101EE00000FB03F09DF80730DB0852F82330D3F8ED
:101EF0000032B0FBF3F080B202B070470C06000273
:101F0000014B1860704700BF2406000270B10368DF
:101F10008B4207DAB3F1FF3F0AD04FF0FF33036083
:101F2000012070475B1A0360002070470120704752
:101F300000207047016082800022C280037201612C
:101F4000C1601046704718B30246C0889388984213
:101F500001D31220704710B4002307E0D068CC5C96
:101F60000470D0680130D0600133DBB2107A834254
:101F7000F4D3D4681168938800FB0310844205D021
:101F8000D3880133D380002010BC7047D160F7E7BD
:101F90002D20704720B30246C3880BB91720704725
:101FA00010B4002304E01069013010610133DBB28A
:101FB000107A834205D20029F5D010690078C85400
:101FC000F1E714691168938800FB0310844205D07F
:101FD000D388013BD380002010BC70471161F7E724
:101FE0002D207047A0B138B50446C5888288954237
:101FF00001D3122038BD31B1006823891A4603FB92
:10200000050004F036FBE3880133E380002038BD8F
:102010002D207047C0F57A7302FB00F001FB03012D
:10202000034880FB0130C917C1EBA010704700BF07
:10203000D34D62108842A8BF084670474342034010
:1020400014D120209AB202B1103813F0FF1F00D033
:10205000083813F00F3F00D0043813F0333F00D09E
:10206000023813F0553F00D0013870471F20E9E7D0
:10207000014B1868704700BF2406000208B50248EB
:1020800000F066F908BD00BF486C000008B50248C2
:1020900000F05EF908BD00BF306C000008B50248D2
:1020A00000F056F908BD00BF3C6C000008B50248BE
:1020B00000F04EF908BD00BF246C000008B50248CE
:1020C00000F046F908BD00BF506C000008B528B10B
:1020D0000268117002680132026008BD0846FFF70D
:1020E000F7FC08BD2DE9F04107460E46151E02DD3E
:1020F0000A46002104E04FF020080EE001310132D1
:1021000010780028FAD1A94201DA6D1A00E0002502
:1021100013F0020F06D14FF0200813F001040AD08B
:10212000002410E04FF03008F7E741463846FFF74B
:10213000CDFF0134013D002DF7DC04E03846FFF708
:10214000C5FF0134013631780029F7D105E0414659
:102150003846FFF7BBFF0134013D002DF7DC204678
:10216000BDE8F081F0B585B007460C9851B11E4628
:102170000C4613B10A2A12D0002604AD002305F83C
:10218000013D18E030238DF8043000238DF8053030
:102190000B9B0A9A01A93846FFF7A4FF29E0002902
:1021A00001DB0026E9E74C420126E6E7303305F87B
:1021B000013DB4FBF2F44CB1B4FBF2F302FB134368
:1021C000092BF3DDA0F13A010B44EFE756B10A9B6E
:1021D0001BB10B9B13F0020F0DD12D2305F8013C11
:1021E000013D00260B9B0A9A29463846FFF77AFFE5
:1021F000304405B0F0BD2D213846FFF767FF0A9B3C
:10220000013B0A93EEE7FFFF70B588B006460C4627
:102210000593002583E0A21C01238DE0013443F0E7
:1022200002032278302AF9D0002206E002EB820273
:102230005000A1F13002024401342178A1F13000B4
:10224000C0B20928F2D973291AD0642924D0692987
:1022500022D078292FD058293CD0752949D063291C
:102260005CD10599081D059009788DF81C10002196
:102270008DF81D1007A93046FFF734FF05444DE0E7
:102280000599081D0590096821B13046FFF72AFF1E
:10229000054443E02D49F8E70599081D05900968B4
:1022A000612002900193009201230A223046FFF739
:1022B00059FF054432E00599081D05900968612021
:1022C000029001930092002310223046FFF74AFF4C
:1022D000054423E00599081D0590096841200290F6
:1022E00001930092002310223046FFF73BFF054484
:1022F00014E00599081D059009686120029001937A
:10230000009200230A223046FFF72CFF054405E027
:10231000144621783046FFF7D9FE01350134237881
:1023200063B1252BF5D1621C63783BB1252BEFD02F
:102330002D2B3FF470AF0023144672E716B13368BB
:1023400000221A70284608B070BD00BF5C6C000007
:102350000FB400B583B004AB53F8041B01934FF0E6
:10236000FF320020FFF750FF03B05DF804EB04B02C
:102370007047FFFF38B5154B93F85834144A82F86C
:10238000283013F0800F1CD1114C0023C4F89C306E
:102390005522626040F29B42A261E3612362012503
:1023A000E56025616561A56001F0FEFE02F006F8BA
:1023B00002F006F902F0F6F901F0BAFF84F82950AC
:1023C00038BD7F22024B83F82820DDE7E0000002C1
:1023D000082F000208B501F0F9FE02F00FF802F034
:1023E000A9FE02F08DFC02F011FA08BD10B586B00E
:1023F00084B2204602F016F8204602F053FA204636
:1024000001F0ECFE204602F097FE204602F07AFC36
:102410006946002003F086FDC0B9684601F0E0FE81
:10242000684602F043F8684602F044FB684602F052
:10243000DBF8684601F088FF204BD3F89C40002C65
:10244000E6D0FFF715FE6946A047E1E71B4BDA68C7
:102450001B4B9A4215D0194B1A69194B9A4217D047
:10246000164B5A69164B9A4218D0144B9A68154B62
:102470009A421AD0114B93F82930022B1BD006B088
:1024800010BD01220D4BDA60032003F035F9ECE7B3
:1024900001200A4B186103F02FF9E6E70122074BF0
:1024A0005A61022003F028F9DFE70122034B9A600A
:1024B00003F06AF9DEE700F003FBE0E7082F000213
:1024C0006C6F61647361766508B501F0B9FE08BD93
:1024D000014BA3F858047047E000000208B5034B15
:1024E000002203490348FFF733FF08BD787200005C
:1024F000A8720000FC6F000070B51E4600241A4B45
:102500001B799C4213DA184B1B6825012B44596830
:10251000306804F06BF908B10134F0E7124B1B6826
:102520001D44AA6869681148FFF712FF70BD0024B6
:1025300000E00134062C12D80D4B03EB04135D6848
:102540002946306804F052F90028F2D1084B03EB19
:102550000414A26829460548FFF7FAFE70BD054835
:10256000FFF7F6FE70BD00BFA82F00023C70000010
:10257000646C00004870000010B51AB11C461B794D
:10258000012B06D00B4B93F828100B48FFF7E0FE09
:1025900010BD216809B17F2903DD0848FFF7D8FE87
:1025A00010BDC8B2FFF794FF21680548FFF7D0FEC1
:1025B00010BD00BF082F0002C4700000747000003E
:1025C0009470000010B51C462AB123683BB9002066
:1025D00000F076FA10BD002000F072FAF5E7012055
:1025E00000F06EFA10BDFFFF08B503F0CDF800B1A2
:1025F00008BD0248FFF7ACFEFAE700BFE07000003C
:1026000008B5032003F078F800B108BD0148FFF7D2
:102610009FFEFAE7D470000008B5064B18601971E8
:1026200000225A719A71044A04490548FFF790FE46
:1026300008BD00BFA82F000278720000A872000039
:1026400028700000014B1879704700BFA82F0002C6
:1026500010B50F48FFF77CFE002407E00D4B03EB9D
:10266000041359680C48FFF773FE0134062CF5D9A2
:10267000002408E0094B1B6803EB04135968064863
:10268000FFF766FE0134FFF7DDFF8442F2DB10BD89
:1026900044700000646C000020700000A82F00024D
:1026A000734B1B68002B00F0E1802DE9F04182B0F4
:1026B000ACE000226E4B5A711220D4E006216D4826
:1026C000FFF722FA00226A4B5A719FE0684B5B7950
:1026D000002B00F09B80013B654A537196E06648F1
:1026E000FFF736FE92E0ADB9621E614B13449B7951
:1026F00003BB5F4A13190021997106F1190102EB1E
:10270000C10302201871631C1344063342F83130B0
:1027100001250FE0564B234400259D710AE001344A
:10272000534B5B799C4224DA24B1514B23449B796F
:10273000222BD8D0002DF2D14D4B23449B79202B56
:10274000EDD14B4B234400229A71032EE7DC484F16
:1027500006F11A0807EBC80301221A71A0183844C1
:1027600000221146063003F0FFFF47F8380001361B
:10277000D5E700243E4B5C71FFF764FF844219DA11
:102780003B4850F8063B25012B44596804F02EF8CD
:1027900008B10134F0E7364B1B682B44DC68C4B148
:1027A000FFF766FC324B53F8D01B3246495BA0471B
:1027B000012500E00025D5B90024062C16D82F4BA2
:1027C00003EB041359682E4804F010F818B10134D3
:1027D000F3E70125EFE7294D24012B19DF68FFF707
:1027E00047FC284B3246295BB84701251DB12248DA
:1027F000FFF7AEFD0AE022492348FFF7A9FDF6E7FF
:102800001B4A5179481C50710A44937102A8002355
:1028100000F8013D03F074FB20BB01221B4B1A7032
:10282000134B5B79C72B3FF644AF01210DF1070035
:10283000FFF76AF99DF807301B2B3FF43FAF082BD9
:102840003FF444AF0D2B01D00A2BD9D1084B5A7954
:10285000002A3FF444AF064B134400249C712546E4
:1028600026465DE7002002B0BDE8F08115207047E4
:10287000A82F0002E8700000F0700000646C0000F7
:10288000AE2F000278300002F4700000280600022B
:1028900010B503F0C9FC72B64FF4801003F0F0FDE0
:1028A000094C204603F024FE084B6360236843F084
:1028B00002032360236843F001032360AA23A3607B
:1028C0005523A36062B610BD00C0024036EB010084
:1028D00072B6034BAA229A6055229A6062B670477C
:1028E00000C0024008B5172003F01CFD08BDFFFF23
:1028F00070B5324B00241C805C8021464FF0804034
:1029000003F059FE2E494FF0804003F079FE4FF05E
:102910008040C46603F086FE4FF080431B6813F0CE
:10292000804FF9D1264E31464FF0804003F068FECB
:10293000244D00242C62204603F0C8FD6C61032066
:1029400003F0C4FDC5F88040082003F0BFFDAC676C
:102950000B2003F0BBFDA5F5F0252146284603F02A
:102960002AFE3146284603F04BFEEC66284603F06B
:1029700059FE154B1B6813F0804FFAD110491248CD
:1029800003F03EFE0F4D0024C5F88840102003F0F0
:102990009DFDC5F88C40112003F098FDEC631420D8
:1029A00003F094FD2C64152003F090FDC5F89040D1
:1029B000162003F08BFD204670BD00BF2C060002E0
:1029C00020A1070000800F400000084038B50446F1
:1029D000B0F5805F05D34FF0FF30B4F5805F35D29E
:1029E00038BD72B64FF0004200214FF0804003F036
:1029F00036FE44F480234FF080429360002302E0CF
:102A000000BF01339BB2B3F5006FF9D34FF0004222
:102A100000214FF0804003F019FE4FF0806200214A
:102A20004FF0804003F012FE4FF080431B69002BF3
:102A3000FADA2046FFF702FBC3B208334FF08042B8
:102A400052F8230062B6C0F30B10C6E7240B72B62F
:102A5000124D4FF000420021284603F000FE44F4DE
:102A60008023AB604FF000420021284603F0EEFDCA
:102A70004FF080620021284603F0E8FD074B1B69F8
:102A8000002BFBDA2046FFF7D9FAC3B20833034A1A
:102A900052F8230062B6C0F30B10A1E70000084013
:102AA000BFF34F8F0449CA6802F4E062034B13433B
:102AB000CB60BFF34F8FFEE700ED00E00400FA05A6
:102AC00008B518220021024803F0D5FDFFF7E8FF02
:102AD000E88F0002808800FB01F1044880FB013090
:102AE000C917C1EBA01080B2704700BFD34D621070
:102AF0002DE9F04104461E462F4B436201600262FD
:102B0000F2B9256A002D4AD1A680BDF81830E380BD
:102B10004FF47A73BDF81C2003FB02F393FBF6F32A
:102B20002381BDF8201004F10C00FEF76FFF099B14
:102B3000A3620A9BE3620023A377A383BDE8F0812D
:102B40001546104603F010FA0746284603F010FA1F
:102B500000EB47104FF00008184B43F82080284640
:102B600003F002FA0746284603F002FA4FF0E05E4F
:102B700007F500635EF82320012101FA00F002430B
:102B80004EF82320284603F0EFF90746284603F0C5
:102B9000EFF97F0107F1E05707F80080B1E7284619
:102BA00003F0E2F90746284603F0E2F97F0107F156
:102BB000E05700233B54A7E7D52A000000800F40D0
:102BC00038B5837F042B1FD0023BDBB2012B19D910
:102BD0000D460446032903D0022D0AD0A57738BD3F
:102BE000C26A002AF8D04FF47F40002101F0CAFBEE
:102BF000F4E7A26A002AF1D04FF47F40002101F0EF
:102C0000C1FBEBE701B9817738BD837F042B00D08E
:102C1000704700238377FBE770B50446837F012B61
:102C200008D0002383830C30FEF7F6FE246A002CC4
:102C30006DD170BD0068B8B90025A369002B23DBF6
:102C4000C3F30F23A3832269616991424FD1228983
:102C500095421BDCE288934239D9256A55BB022193
:102C60002046FFF7ADFF70BDFFF7B0FE051E09DB84
:102C7000636AA9B220469847014604F10C00FEF7AA
:102C8000D0FEDAE70025F3E7FF33D9E7256A25B957
:102C900003212046FFF794FF70BD284603F064F936
:102CA0000646284603F064F9760106F1E056002353
:102CB0003354EDE7284603F057F90646284603F05B
:102CC00057F9760106F1E05600233354C7E7246A2A
:102CD000002CAED0204603F047F90546204603F00D
:102CE00047F96D0105F1E05501232B5470BD246AAD
:102CF000002C9ED0204603F037F90546204603F00D
:102D000037F96D0105F1E05501232B5470BD2046C4
:102D100003F02AF90546204603F02AF96D0105F172
:102D2000E05500232B5484E72DE9F0478AB0044690
:102D3000129FBDF84C50BDF95060BDF85480BDF8ED
:102D40005890BDF85CA08DF827208DF82630002221
:102D5000A0F80C21A0F80E21A0F81021A0F8402125
:102D6000A0F84221C0F80811134644F6206100F58E
:102D70008A70FEF7E5FE1423C4F83C319DF8272045
:102D80001A9B0693189B0593CDF810A0CDF80C90D4
:102D9000CDF80880019700962B46D4F808112046FC
:102DA00000F05EF9D4F808119DF826201B9B0693CD
:102DB000199B0593CDF810A0CDF80C90CDF80880A4
:102DC000019700962B46043104F1840000F048F985
:102DD0000AB0BDE8F087FFFF2DE9F04704460F4633
:102DE000D0F80831DB89002B13BF4FF001084FF0FA
:102DF00000080126002600F59E70FFF787F80028DE
:102E00004ED01423C4F83C31D4F808311A89642A0E
:102E100001D964221A81D4F808315A89642A01D967
:102E200064225A81D4F80831B3F808905D89B4F966
:102E30000C31B3F57A7F27DD4FF47A73A4F80C31A7
:102E400094F83030022B27D0B4F90C0103F0CAFCFF
:102E50008246B4F90E0103F0C5FC82455BDDB4F98E
:102E60000C21B4F90E3103FB02F3002B53DB09FBF9
:102E700009F944F6206303FB09F9654BA3FB092319
:102E80005B0BC4F8143152E013F57A7FD8DA4FF6B1
:102E90001843A4F80C31D3E7B4F90C31A4F80E317F
:102EA000B4F90E31002B40F389807501AB199800FD
:102EB0000021204400F0CEF93544AB002344B3F8A0
:102EC0006A30002B6BD03946204600F017F939469E
:102ED00004F1840000F012F9B4F91C20B4F8A03019
:102EE000002A40F08A805B421BB2A4F84031002ADD
:102EF00000F08580B4F96C20A4F842219BB2D4F88C
:102F00000821D289002A7FD1012203FB02F3A4F811
:102F10004031BDE8F08705FB05F544F6206303FB6F
:102F200005F33B4AA2FB03235B0BC4F81431B4F94D
:102F30000C311B01C4F83031B4F91021142104F50F
:102F40008A70FEF711FED4F83421B4F8103113441E
:102F50001BB2A4F8103143F68F618B4215DD4FF49C
:102F60007A73A4F81031B4F91031002B15DB1B1162
:102F7000A4F80E31002A93D1B4F90C31A4F80E3123
:102F80009BB21B01A4F810318AE722498B42EADA8E
:102F90004FF61843A4F81031E5E70F33E7E74FEA9F
:102FA000481398444FEA88002518B4F90E0103F03D
:102FB00019FC81B2284600F04DF984E74FEA481524
:102FC00005EB080398000021204400F043F9A844D1
:102FD0004FEA88032344B3F86A30002B7FF473AFC1
:102FE00075013544A8002518B4F90E0103F0FAFB69
:102FF00081B2284600F02EF965E7134675E7B4F86C
:10300000F020524212B277E74FF6FF727DE700BF21
:103010005917B7D171C1FFFFC0F8081141630431DE
:10302000C0F8B8107047FFFF838803FB01F10B4B1A
:1030300083FB0123C917C1EBA311C06F00280BDB71
:10304000001283B233B14FF47A7303FB01F180B203
:10305000B1FBF0F188B27047FF30F1E7D34D621059
:1030600030B589B004461D468DF81F204163129B80
:103070000493119B039364230293BDF840300193A2
:10308000BDF83C300093BDF8383000220D99FFF7B1
:103090002FFD194B63620A2104F17000FEF7B6FCA4
:1030A000002384F83030BDF930306387E5B9002360
:1030B00023870025A4F86850A4F86C50A4F86A503F
:1030C0009DF81F30DBB284F8803094F880002946E8
:1030D000FEF7C8FE2B4604224FF47A7104F140003B
:1030E000FEF72EFD09B030BD6D004FF47A7393FBEF
:1030F000F5F52587E563DCE72930000070B5044667
:103100000D46FFF789FDB4F868304BB9B4F86A3062
:103110000BB1A38B23B900212046FFF751FD03E03B
:1031200001212046FFF74CFDA37F012B25D0002372
:10313000A4F8683004224FF47A7104F14000FEF7DD
:10314000FFFCB4F93A30002B01DD5B4263870023BA
:10315000A4F86A30A4F86C3094F88000B4F86A10CF
:10316000FEF780FEB4F86A1004F17000FEF759FC17
:10317000B4F86830A4F8823070BD238F002B36D1AC
:10318000B4F86830B3F57A7F03D94FF47A73A4F8B2
:10319000683094F83030002B47D1B4F8680000282C
:1031A00032D10020E065666A2068FFF70FFC81B22B
:1031B0002046B0470246294604F14000FEF7D4FC01
:1031C00094F88000FEF77AFE226E811889B2B4F975
:1031D0003A3003EBD37301EB630109B2B4F8683002
:1031E0000BB902B90021A38BA4F86C301EE029466C
:1031F00004F13C00FEF78AFE0028C1D0638F5B42D9
:103200006387238FE363BBE7636B5A881988FEF7F4
:1032100001FF00B2636B1A88904201DA10B2C1E775
:103220005B889842BEDD18B2BCE7002100290CDBA8
:103230008BB2B3F57A7F0AD8A4F86A10003118BFB0
:1032400001212046FFF7BCFC86E70021F4E74FF49C
:103250007A71F1E7A0F86810704708B50423837706
:1032600090F880000021FEF7FDFD08BD074B23F01C
:103270000703074A136000205060064A41F6387180
:103280005160106059601A60704700BF3806000234
:103290007C2500027025000270B5044600F016FA85
:1032A000224B1B687BB134B1083414F0070F02D0F5
:1032B00024F007040834621E41F636739A4231D86E
:1032C0001B490B6807E0FFF7D1FF0122174B1A607B
:1032D000E9E7194613465A68944202D91A68002A47
:1032E000F7D1144A93421FD00D6808351A680A6056
:1032F0005A68121B102A0CD91E1972605C6074681F
:103300000B4900E011460A6850688442FAD83260DE
:103310000E605968084A13685B1A136000F068FA77
:10332000284670BD0025F9E70025F7E7782500025B
:103330007C25000270250002D8000002D0B170B5D3
:103340000546A0F1080600F0C1F955F8044C0A4AF8
:1033500000E01A46136859688C42FAD845F8083CD0
:10336000166055F8041C054A13680B44136000F0FE
:103370003FFA70BD704700BF7C250002D8000002F4
:103380000A4B1B681B684BB901234BB9074B1B68E1
:10339000DB68DB685A68064B1A6070470023F4E765
:1033A0004FF0FF32024B1A60704700BF88250002C1
:1033B0007426000210B50446006BFFF7BFFF2046DD
:1033C000FFF7BCFF10BD2DE9F04781460D461746BB
:1033D0009A46089EDDF824800A9C9200A521206B65
:1033E00003F049F9236B07F18042013A03EB8207AE
:1033F00027F007070023132B07D8E95CE21882F8AF
:103400003410EA5C0AB10133F5E7002384F8473051
:10341000072E00D90726E662266500256565201D72
:1034200000F085FE04F1180000F081FE2461C6F171
:103430000806A6616462A56584F85C505246494658
:10344000384602F04BF82060B8F1000F01D0C8F800
:103450000040BDE8F087FFFF38B5002407E004EB2B
:10346000840293000E48184400F056FE0134072CE5
:10347000F5D90C4D284600F04FFE0B4C204600F0CD
:103480004BFE0A4800F048FE094800F045FE094896
:1034900000F042FE084B1D60084B1C6038BD00BFA9
:1034A00090250002482600025C2600027C260002CD
:1034B000A826000294260002882500028C2500021E
:1034C00010B5044602F02EF8214A13680133136048
:1034D000204B1B68002B32D01F4B1B683BB91D4B88
:1034E0001B68DA6AE36A9A4201D81A4B1C601B4ACD
:1034F000136801331360A364E36A01229A401849F8
:10350000086802430A6003EB83039A00211D1548F3
:10351000104400F00FFE02F015F80F4B1B686BB162
:103520000C4B1B68DA6AE36A9A4207D24FF080526A
:103530000D4B1A60BFF34F8FBFF36F8F10BD054B5C
:103540001C601368012BD2D1FFF786FFCFE700BFC5
:103550003026000284250002902600024026000248
:10356000442600029025000204ED00E070B50446F8
:103570000E461D4B1D681D4B1868043000F000FE00
:1035800050B91A4B1B68DA6A012303FA02F2184990
:103590000B6823EA02030B60B4F1FF3F13D02C4405
:1035A000124B1B685C60A54216D8124B18680F4B73
:1035B0001968043100F0CAFD0F4B1B689C4201D210
:1035C0000D4B1C6070BD002EE9D0084B196804310A
:1035D0000A4800F0AFFD70BD094B1868034B19682D
:1035E000043100F0B3FD70BDBC260002842500024A
:1035F0004426000288250002742600029426000258
:103600008C2500022DE9F04385B006460F4615468D
:1036100098469000FFF740FE00B381466020FFF718
:103620003BFE0446B0B1C0F83090CCB10023039308
:1036300002940D9B01930C9B009343462A46394606
:103640003046FFF7C0FE2046FFF73AFF012005B0E5
:10365000BDE8F0834846FFF771FEE6E70024E4E7A3
:103660004FF0FF30F3E7FFFF00B583B0114B01933C
:1036700000230093802210491048FFF7C3FF012860
:1036800002D003B05DF804FB4FF0200383F31188F0
:10369000BFF36F8FBFF34F8F4FF0FF32084B1A60AD
:1036A0000122084B1A600022074B1A6001F0A6FFA6
:1036B000E7E700BF702600020C7100009D39000092
:1036C0007426000290260002BC260002024A1368FB
:1036D00001331360704700BF3C260002014B18689D
:1036E000704700BFBC260002F8B5364B1B68002BA4
:1036F0005CD1354B1E6801361E6086B1334B1B68AA
:103700009E4247D20027324B1B68DB6A03EB8303E0
:103710009A00304B9B58012B4DD901274BE02E4A84
:1037200011682E4B1868106019602D4A1368013318
:103730001360FFF725FEE1E70127274B1B681B6895
:1037400053B3002353BB244B1B68DB68DC686368FE
:103750009E4228D3251D284600F012FDA36A1BB106
:1037600004F1180000F00CFDE36A01229A401D49A3
:10377000086802430A6003EB83039A002946154850
:10378000104400F0D7FCE26A114B1B68DB6A9A42D6
:10379000D2D2D2E70027D0E70123D3E74FF0FF32A0
:1037A0000A4B1A60AFE7094A1360ACE70E4A136888
:1037B0000133136000270D4B1B6803B10127384606
:1037C000F8BD00BF3C260002BC26000274260002A1
:1037D0008425000290250002882500028C25000225
:1037E000782600024426000238260002C026000285
:1037F00038B501F097FE2E4B1A68013A1A601B6823
:10380000002B4DD12B4B1B683BB300242A4B1B686C
:103810002BB3294BDB68DC6804F1180000F0B0FC26
:10382000251D284600F0ACFCE36A01229A4023499A
:10383000086802430A6003EB83039A002946204884
:10384000104400F077FCE26A1E4B1B68DB6A9A4268
:10385000DCD301221C4B1A60D8E7002421E00CB114
:10386000FFF78EFD194B1C6874B9174B1B68E3B149
:103870004FF08052164B1A60BFF34F8FBFF36F8F1C
:1038800001240EE0013C07D0FFF72EFF0028F9D0FD
:1038900001220D4B1A60F5E700220C4B1A60E4E799
:1038A000002401F04FFE204638BD0024F9E700BF98
:1038B0003C260002302600027C260002442600023C
:1038C0009025000284250002C0260002382600024E
:1038D00004ED00E038B505460C46FFF7F7FE164B41
:1038E00018682A681444904205D2A24209D9A0421D
:1038F00016D3002206E0A24214D8A04214D300221C
:1039000000E000222C608AB9FFF772FF38B94FF04F
:1039100080520A4B1A60BFF34F8FBFF36F8F38BDD1
:103920000122EFE70122EDE70122EBE70021201A57
:10393000FFF71CFEE8E700BFBC26000204ED00E034
:10394000134B1B6813B310B5FFF7C0FE114B1C6877
:10395000FFF74EFF24B90E4B1B68002BF4D110BDAE
:1039600001F0E0FD0B4BDB68DC68201D00F008FC7B
:10397000094A1368013B1360054A1368013B136051
:1039800001F0E0FD2046FFF715FDE4E7704700BFBA
:1039900034260002A82600023026000208B501E005
:1039A00002F0C6FBFFF7CCFF064B1B68012BF7D9D3
:1039B0004FF08052044B1A60BFF34F8FBFF36F8FED
:1039C000EEE700BF9025000204ED00E0194B1B68F4
:1039D0001BBB10B40022184B1A60184B1B68B3FABB
:1039E00083F3DBB2C3F11F0315489A00D418A1007A
:1039F00001444C6864684C601A44910008310844E2
:103A000084420ED003EB83039A000D4B13445B6892
:103A1000DA680C4B1A6010BC70470122064B1A6022
:103A20007047606803EB83029100054A0A445060C6
:103A3000E8E700BF3C260002C02600024426000240
:103A4000902500028425000210B50C46044B19682D
:103A5000183100F07BFB01212046FFF787FD10BDE8
:103A60008425000238B5C368DC6804F118052846CF
:103A700000F086FB134B1B68E3B9251D284600F0B8
:103A80007FFBE36A01229A400F49086802430A60FB
:103A900003EB83039A0029460C48104400F04AFBCC
:103AA000E26A0B4B1B68DB6A9A4208D90120094B7A
:103AB000186038BD2946084800F03CFBF0E70020BC
:103AC00038BD00BF3C2600024426000290250002BB
:103AD00084250002C02600027C260002034B1B68DE
:103AE0000360034B1B684360704700BF78260002E9
:103AF000BC26000238B504460D4601F013FD114BFB
:103B00001A682B68B3F1FF3F18D020680E49096886
:103B1000884202D061688A4212D26168501A834298
:103B200004D8012401F00EFD204638BD8A1A134442
:103B30002B602046FFF7D2FF0024F3E70024F1E7D3
:103B40000124EFE7BC260002782600020122014B87
:103B50001A607047C0260002002847D038B50446D6
:103B6000C36A23490968C96A8B4216D28169002950
:103B700005DB1F490968C96AC1F1080181616069F3
:103B800003EB830399001B4B0B44984206D00023A0
:103B900033B9174B1B68DB6AE36238BD0123F7E7D3
:103BA000251D284600F0ECFA68B9E36A03EB8301AF
:103BB0008A0010498A5832B901229A400E490B688E
:103BC00023EA02030B600A4B1B68DB6AE3620122F3
:103BD0009A400949086802430A6003EB83039A008C
:103BE00029460448104400F0A5FA38BD704700BFCC
:103BF000842500029025000244260002002834D0CB
:103C000038B50446426D013A4265C06A216D88426A
:103C10002DD00AB1002038BD251D284600F0B0FA8D
:103C200068B9E36A03EB83018A0012498A5832B902
:103C300001229A4010490B6823EA02030B60236DAE
:103C4000E362C3F10802A261012404FA03F20A4903
:103C5000086802430A6003EB83039A00294605487B
:103C6000104400F067FA204638BD0020704700205D
:103C700038BD00BF9025000244260002054B1B689A
:103C800023B1044B1A68536D01335365014B186817
:103C9000704700BF8425000210B5044601F042FCC5
:103CA000A26BE36B9A4204D0002401F04BFC204647
:103CB00010BD0124F9E710B5044601F033FCA36BF5
:103CC00023B1002401F03EFC204610BD0124F9E799
:103CD00070B504461646856B026C5AB903681BB171
:103CE00000200135A56370BD4068FFF787FF002302
:103CF0006360F6E76EB9806802F0BBFC226CA368D3
:103D00001344A3606268934219D32368A360002020
:103D1000E7E7C06802F0ADFC226C5242E36813444E
:103D2000E36021688B4202D263681A44E260022E8B
:103D300001D00020D5E725B1013D0020D1E70020CA
:103D4000CFE70020CDE7026C72B110B5C368134411
:103D5000C3604468A34201D30368C3600C46C168D2
:103D6000204602F086FC10BD704738B5054601F0CC
:103D7000D9FB95F8454064B201E0013C64B2002CE7
:103D80000ADD6B6A43B105F12400FFF76BFE0028E2
:103D9000F3D0FFF7DBFEF0E7FF2385F8453001F0B5
:103DA000D1FB01F0BFFB95F8444064B201E0013C57
:103DB00064B2002C0ADD2B6943B105F11000FFF756
:103DC00051FE0028F3D0FFF7C1FEF0E7FF2385F88E
:103DD000443001F0B7FB38BD38B504460D4601F05C
:103DE000A1FB2168E26B236C03FB021060600020E2
:103DF000A063A160013A02FB0313E360FF2384F890
:103E0000443084F84530A5B923691BB901F09AFB09
:103E1000012038BD04F11000FFF724FE0028F5D082
:103E20004FF08052074B1A60BFF34F8FBFF36F8F75
:103E3000ECE704F1100000F06FF904F1240000F049
:103E40006BF9E3E704ED00E038B51D46049C0B4632
:103E500049B12260E063236401212046FFF7BCFFE3
:103E600084F84C5038BD2460F4E7F0B583B00546C3
:103E700017460E4689B100FB01F05030FFF70CFAEF
:103E8000044638B100903B4600F1500231462846C6
:103E9000FFF7DAFF204603B0F0BD0020EDE7FFFF9B
:103EA000F0B585B004460F4601921E46002539E064
:103EB000324639462046FFF70BFF636A6BB938B1CB
:103EC0004FF080523B4B1A60BFF34F8FBFF36F8FA1
:103ED00001F038FB012005B0F0BD04F12400FFF72C
:103EE000C1FD0028F4D04FF08052324B1A60BFF36E
:103EF0004F8FBFF36F8FEBE701F024FB0020EAE761
:103F000002A8FFF7EBFD012519E0002384F84430F7
:103F100021E0002384F8453023E02046FFF725FF09
:103F2000FFF766FC01F0FEFAA26BE36B9A42BFD387
:103F3000022EBDD0019B002BDED0002DE0D001F081
:103F400001FBFFF7C3FB01F0EDFA94F844305BB2DC
:103F5000B3F1FF3FD9D094F845305BB2B3F1FF3FE6
:103F6000D7D001F0EFFA01A902A8FFF7C3FDC8B945
:103F70002046FFF791FE0028CFD0019904F11000F0
:103F8000FFF762FD2046FFF7F0FEFFF731FC002847
:103F9000C8D14FF08052074B1A60BFF34F8FBFF369
:103FA0006F8FBFE72046FFF7E0FEFFF721FC002000
:103FB00091E700BF04ED00E02DE9F04184B0044634
:103FC000884601921E46002560E0E568414620468D
:103FD000FFF7B9FEF6B97B1EA36323683BB12369E3
:103FE0004BB901F0AFFA012004B0BDE8F081FFF752
:103FF00045FE6060F3E704F11000FFF733FD002891
:10400000EFD04FF08052434B1A60BFF34F8FBFF396
:104010006F8FE6E7E560636A002BE2D004F12400CD
:10402000FFF720FD0028DCD04FF08052394B1A609A
:10403000BFF34F8FBFF36F8FD3E701F083FA0020F8
:10404000D2E702A8FFF74AFD012529E0002384F802
:10405000443031E0002384F8453033E001F062FA67
:104060006068FFF779FD01F06DFA3BE02046FFF74D
:104070007CFEFFF7BDFB09E02046FFF776FEFFF769
:10408000B7FB2046FFF717FE002840D101F04AFA9F
:10409000A76B002F99D1019B002BCED0002DD0D043
:1040A00001F050FAFFF712FB01F03CFA94F84430AB
:1040B0005BB2B3F1FF3FC9D094F845305BB2B3F1C6
:1040C000FF3FC7D001F03EFA01A902A8FFF712FD99
:1040D0000028D1D12046FFF7EEFD0028C6D0236886
:1040E000002BBBD0019904F12400FFF7ADFC204662
:1040F000FFF73BFEFFF77CFB0028C7D14FF0805253
:10410000044B1A60BFF34F8FBFF36F8FBEE70020E1
:104110006AE700BF04ED00E000F1080343604FF0E0
:10412000FF328260C3600361002303607047002395
:104130000361704743684B609A688A609A6851606F
:1041400099600861036801330360704730B40D68FB
:10415000B5F1FF3F02D000F1080202E0026904E07D
:104160001A4653681C68A542FAD253684B6099609E
:104170008A605160086103680133036030BC704796
:1041800003694268816891608268416851605A6839
:10419000904205D00022026118680138186070470B
:1041A00082685A60F6E7FFFF10B50024064B1C70CA
:1041B0007F20FEF789F923464FF0FF322146204643
:1041C00001F0AEFC10BD00BF082F00020B22024B15
:1041D000A3F85824704700BFE00000027047FFFFBB
:1041E00008B583681BBB037B012B20D94378104A99
:1041F00092F82820934200D0CBB90378802B13D0BB
:1042000008D8012B0CD0022B03D10422084B1A70C2
:1042100008BD08BD822B02D8FEF752FC08BD08BDC0
:104220000522034B1A7008BD7F22014B1A7008BD8E
:10423000082F0002014B1878704700BF082F0002BA
:1042400010B586B004460D4B1B780BB97F2803D000
:104250000A4B1C7006B010BD00200490074B93F869
:10426000283003F5E06302937F238DF800300123AB
:104270008DF80C30694601F04BFEE9E7082F00028B
:10428000C37813F0C00F04D083788B4206D200208D
:1042900070478378994203D000207047012070470F
:1042A000012070472DE9F04105460E4600242146C5
:1042B000274602E047460134A4B2112C14D804EB7F
:1042C00044029300184AD35AAB42F4D104EB44039E
:1042D0004FEA8308904431464046FFF7D1FF01463C
:1042E0000028E7D10121E6E7D9B9002400E0013434
:1042F000FDF714F9A04214D904EB440293000B4AD1
:10430000D35A9D42F3D104EB44029300074A03EBD6
:10431000020831464046FFF7B3FF0028E7D0474682
:10432000E5E73846BDE8F0811471000000000002A6
:1043300008B504480823032201461438FDF7FAFDA6
:1043400008BD00BF542F0002836823F07F02802A3B
:1043500000D070470269002AFBD100B583B003F09A
:104360007F038DF80630C388ADF80430036802A9D6
:1043700041F8083D0248FDF7E6FD03B05DF804FB97
:10438000402F000200B587B00023019303930493EC
:104390000593094991F828108031029108218DF880
:1043A0000C10ADF8060000926946184601F0B0FD09
:1043B00007B05DF804FB00BF082F000210B50D4BDD
:1043C000B3F864340C4C63620422002104F12A0027
:1043D00002F051F90222042104F12E0002F04BF9FF
:1043E00000236FF07F024FF4E061184601F098FB64
:1043F00010BD00BFE0000002082F0002084B40F68D
:104400009802A3F86624052183F86814A3F86A24A7
:10441000092283F86C244FF47A72A3F8642470475D
:10442000E000000230B587B0044601461C48FDF7A5
:104430006DFD08B9002319E01A4BB3F864241A4B38
:104440005A620025049593F8283003F5E06302933F
:10445000FFF7F0FE8DF8000001238DF80C3069465F
:10446000284601F055FDE5E701339BB2012B15D835
:1044700003F114020C4901EB4202508803F58C72DF
:10448000084901EB8202D2889042EDD203F1140276
:10449000054901EB420220445080E5E707B030BDFA
:1044A0002C2F0002E0000002082F00020369E3B98C
:1044B000836823F07F02B2F5E06F16D1027B012AF8
:1044C00013D103F07F030022012A1AD830B4154615
:1044D00002F58C710B4C04EB8101097A8B4205D0FB
:1044E000013292B2012AF2D930BC7047064B143225
:1044F00003EB42020021518002782B4483F82E20E6
:10450000F2E77047E0000002082F00020023012BB1
:1045100020D810B41C4603F58C720F4901EB8202BF
:10452000127A824206D001339BB2012BF2D90020CD
:1045300010BC704703F11402084B03EB4203588888
:1045400004F58C7401EB8404E388984234BF0020A6
:104550000120EDE700207047E0000002082F000274
:10456000036913B14FF6FE707047037B082B02D02E
:104570004FF6FE707047836823F07F03B3F5C06F7A
:1045800005D0B3F5B06F02D04FF6FE7070470278D9
:1045900002F0E003202B0BD0602B0BD063B1402B3B
:1045A0000CD0802A02D04FF6FF70704780207047F1
:1045B00020207047602070470020704740207047DF
:1045C00008B5084B93F8281000234FF0FF3201F58F
:1045D000C061184601F0A4FA00F098FD00F086FBD7
:1045E00008BD00BF082F000238B50546FFF7B8FF29
:1045F0004FF6FE7398420ED0AA6802F07F040F4B6C
:1046000093F828309C4207D09C4204D022F07F03CC
:10461000B3F5B06F0AD038BD22F07F01B1F5C06F9D
:10462000F2D10146284600F08DFB38BD02F07F0232
:104630000146284600F0ACFDEDE700BF082F000260
:1046400010B572B6CB7813F0C00F12D01AB98B78B0
:10465000436062B610BD002340F8043F4C68531E0F
:10466000C97801F007010A4601FB034102F001F895
:10467000EFE703F007024968043001F0FAFFE8E7CA
:1046800038B504460D4672B6C37813F0C00F0ED08D
:104690000AB9002018E04468501E03F007031A46C8
:1046A000043103FB004001F0E4FF01200CE0087836
:1046B00010F0010F0AD0C0F38100C0F10402291DDF
:1046C000606801F0D6FF012062B638BD112B02D020
:1046D00003F00702F3E721890420FDF7ABFC42B2A7
:1046E000EDE7FFFF30B587B0002504950C4C94F83A
:1046F00028402044029008208DF80C0080208DF87E
:1047000000008DF80110090A8DF802108DF80320C1
:1047100001936946284601F0FBFB07B030BD00BF9E
:10472000082F000270B504460E464078A37800EBCF
:104730000320E17880B2FFF7B5FD0546F8B1837A32
:1047400033420DD1012E0DD06178A37801EB032106
:10475000114BE27889B24FF4B060FFF7C3FF002538
:10476000284670BD6178A37801EB03210B4BE278FA
:1047700089B24FF4B060FFF7B5FF0025F0E761782C
:10478000A37801EB0321064BE27889B24FF4B060C5
:10479000FFF7A8FFE4E700BF0200010601000106E1
:1047A0000000020610B50024002C01DD002416E0F4
:1047B00004F5C050002180B2FFF774FD60B141687C
:1047C000114B04F10C02098A43F8221004F118027B
:1047D00003EB420300229A800134E5E70134012C07
:1047E00010DC04F5A050002180B2FFF75BFD00282B
:1047F000F4D0416800234FF0FF320968184601F0F9
:104800008FF9EBE710BD00BF082F0002F0B40026BF
:10481000002E01DD002637E01D4CB3009A199500EB
:104820002A46254405F598651A4F17440FCF0FC542
:104830003B682B60331D04EB431404F25444164DC3
:1048400005EB46150FCD0FC495E80F0084E80F0067
:104850000136DDE70E4C06F18D0304EBC30308338C
:104860000E4A02EBC60292E8030083E803007301DC
:104870001C4404F590640A4D1D440FCD0FC495E807
:104880000F0084E80F000136012EE3DDF0BC704715
:10489000E00000023C72000050720000EC71000069
:1048A000FC7100002DE9F04F87B00546FFF7C2FC10
:1048B000052802D007B0BDE8F08F0024002CF9DCF9
:1048C000A6B206F5C050002180B2FFF7EBFC03460C
:1048D00010B35F6804F11803734A02EB4303B3F9A2
:1048E0000430002B06DD04F118026F4901EB42028F
:1048F0005B1B93803B68002B0CDB04F10C08DFF89A
:10490000A891294609EB8800FDF700FB59F82830EB
:10491000002B06DD0134D1E7C27812F0C00FF9D1C7
:10492000D7E704F1180309EB4303B3F90430002B74
:10493000F0DC398A49F82810BA6804F1180109EB4B
:1049400041039A8008220021684601F094FE06F592
:10495000D056B6B200213046FFF7A4FC824620B103
:10496000D0F804B00026B14670E0504B002231462A
:104970004FF4C060FFF7B6FE4FF00009B9F1000F29
:10498000C8D0002004908DF80C903B6802936946D3
:1049900001F0BEFABEE70BEB86039978FFF782FCC5
:1049A000824650B10BEB8603DA78C37803F0070335
:1049B0009A420FD800231A465CE00BEB86023B4B71
:1049C00092783BF826104FF4C060FFF78BFE00236F
:1049D00001224FE00BEB8602354B92783BF8261014
:1049E0004FF4C060FFF77EFE0023012242E0002367
:1049F00001223FE0002301223CE001220AF10201F2
:104A00000DEB090001F035FE17E0DAF8041003F0B1
:104A10000700531E0BEB8802D27803FB00110DEB4D
:104A2000090001F026FE08E00BEB8803DA78DAF8DB
:104A300004100DEB090001F01CFE0BEB880898F840
:104A4000033099445FFA89F90136F6B2072E95D8FA
:104A5000B9F1080F92D0B0460BEB8603DB78002B40
:104A6000C5D04B44082BC5DC3BF82600002892D16A
:104A700001230022002A81D1002BDED19AF80330D5
:104A800013F0C00FD0D00BEB88029278002AB4D07C
:104A90009AF802108A42B8D9044B3BF828104FF418
:104AA000C060FFF71FFEC8E7082F000200000206E3
:104AB000000001062DE9F04F83B08246FFF7BAFBF4
:104AC00005280DD000230193DAF810300BB1002334
:104AD0000193019B002B00F0EA804FF0000BBAE03D
:104AE00001230193F0E700230093C9E00023009322
:104AF000C6E004F5B05400212046FFF7D3FB814601
:104B0000002840F0CC806B4B002221464FF4C0605F
:104B1000FFF7E8FD00230093C1E04FF0000883E0B9
:104B200007EB86039978FFF7BDFB814618B3B8F110
:104B3000000F69D007EB8603DA7899F8033003F0A9
:104B400007039A4229D8B8F1000F5DD099F8030005
:104B500010F0C00F4AD007EB86039A787AB399F821
:104B600002309A4233D9534B37F826104FF4C060C5
:104B7000FFF7B8FD43E007EB86084E4B98F802209C
:104B800037F826104FF4C060FFF7ACFD98F80330FB
:104B90001C44E4B24FF00008C9E707EB8608464B17
:104BA00098F8022037F826104FF4C060FFF79AFDFE
:104BB00098F803301C44E4B24FF00008C3E73F4BC1
:104BC00037F826104FF4C060FFF78CFD17E0D9F8D6
:104BD000043000F0070E501E07EB8602D2780AEB75
:104BE000040100FB0E3001F044FD08E007EB8603F2
:104BF000DA780AEB0401D9F8040001F03AFD07EB7A
:104C00008606F3781C44E4B20135EDB2072D1ED8B8
:104C10002E4607EB8503DB78E1189AF80C209142C9
:104C20003FF77BAFDDF800800BB94FF0000837F895
:104C3000260000287FF474AF07EB86029278002AE2
:104C40007FF46EAF1C44E4B24FF000086FE70BF145
:104C5000010B5FFA8BFBBBF1010F28D81FFA8BF415
:104C6000002104F5A050FFF71DFB814600283FF40A
:104C70003AAFC37813F0C00F3FF438AF019B0093F5
:104C8000009B43B1D9F804301A68DAF808309A4228
:104C900001D000230093009B002B7FF42AAF009BE0
:104CA000002BD4D0D9F8047000252C46AEE703B011
:104CB000BDE8F08F00000206000001064100040676
:104CC00008B513460A4601464FF4B060FFF70AFDE7
:104CD0000122024B83F8802008BD00BF082F00028C
:104CE000014BC3F888007047082F0002034B0122D4
:104CF00083F880200022C3F888207047082F000224
:104D00007047FFFF0C4B93F88030052B00D870479D
:104D100010B501460948FDF7F9F800B910BD064C79
:104D2000074A94F88410B4F88200FFF7C9FF012302
:104D300084F88030F2E700BF082F0002A02F0002A5
:104D400000000405F0B587B004460D46002104912B
:104D5000AF4B93F8283003F5B063029308228DF827
:104D60000C20684601F087FC6378A27803EB0223ED
:104D70005942DAB2C9B258BF4A428DF801201A46E8
:104D8000002B25DB12128DF80220E3788DF803301A
:104D90006378A27803EB022341F6507293421AD053
:104DA000802D23D09A4B93F88030012B23D0062BF3
:104DB00000F0C480082B00F035816078A37800EB08
:104DC0000320944AE17880B2FFF77AFF07B0F0BD84
:104DD00003F1FF02D6E7E378012BE1D11822214647
:104DE0008D4801F046FCFDF75BFED9E70122884BB8
:104DF00083F88020EAE7864B0021A3F88C106278C4
:104E0000A07802EB0022A3F88220E27883F88420C5
:104E100083F894100A22C3F89820202D0BD0402D3F
:104E20005ED06078A37800EB03207C4AE17880B202
:104E3000FFF746FFCAE702212046FFF773FC002870
:104E4000C4D0227812F0020F22D1C27812F0300FB3
:104E500014D06F4AC2F89000082382F8803006AC64
:104E6000602304F8183D042200210DEB020001F03C
:104E700002FC2146002001F04BF8A7E76078A378F8
:104E800000EB0320654AE17880B2FFF719FF9DE748
:104E900060228DF80020E2782146FFF7F1FBA8B1EF
:104EA0000422A1180DEB020001F0E3FB694600208B
:104EB00001F02EF8564BD3F88830002B86D0544A98
:104EC00092F88410B2F8820098477FE76078A37860
:104ED00000EB0320514AE17880B2FFF7F1FE75E75D
:104EE00001212046FFF71EFC014600283FF46EAF6B
:104EF000C378112B12D003F00703C3F104039B0006
:104F000043F0430306AD05F8183DE2782846FFF765
:104F100097FB2946002000F0FBFF57E73C4B062299
:104F200083F88020C3F8900041238DF80030038976
:104F300001936946002000F0EBFF47E7602D7FF406
:104F400039AF334B0A22C3F89820B3F882008DF8AA
:104F50000100020A8DF8022093F884108DF80310E6
:104F60002278C2F3001293F894309A4203D02C4A6C
:104F7000FFF7A6FE2AE7264CD4F890301889B4F83B
:104F80008C300721C01AFDF755F80646C5B2D4F893
:104F900090301B89B4F88C209B1A072B27DD94F8DE
:104FA00094301B018DF80030072200210DF1010023
:104FB00001F061FB164CD4F890305968B4F88C308D
:104FC000F2B219440DF1010001F053FBB4F88C303A
:104FD0001D44A4F88C506946002000F099FF94F815
:104FE0009430B3FA83F35B0984F89430EEE6084A10
:104FF00092F89410C5F107035BB243EA01135BB268
:1050000043F001038DF80030012382F88030CBE7B4
:10501000082F000200000606E88F000200000106CB
:1050200000000305002D7FF4C8AE354B0A22C3F8FB
:105030009820B3F882008DF80100020A8DF8022052
:1050400093F884108DF803102278C2F3001593F8BA
:1050500094309D4250D112F0010F03D00122284B11
:1050600083F8802025786FEA650505F00705244B55
:10507000B3F88C60AF19D3F890301A89974237DCB7
:1050800058682A46611C304401F0F3FA1C4CB4F80D
:105090008C301D44A4F88C5094F894301B0143F0DC
:1050A000200306AD05F8183D072200210DF101008F
:1050B00001F0E1FA2946002000F02AFF94F894302C
:1050C000B3FA83F35B0984F894300D4B93F8803086
:1050D000012B7FF47BAE0A4BD3F88830002B3FF4D2
:1050E00075AE074A92F88410B2F8820098476DE6D0
:1050F000044AFFF7E5FDE8E7034AFFF7E1FD65E64F
:10510000082F0002050003050000030508B5084B41
:10511000012283F864204FF0FF321A6700236FF0FA
:105120007F024FF4B061184600F0FAFC08BD00BFE2
:10513000082F00027047FFFF38B5124B93F8643018
:10514000012B18D0044601460F48FCF7DFFE90B152
:105150000C4B93F86430022B0ED00A4D0B4B95F894
:105160006620B5F868104FF4B060FFF7BBFA022371
:1051700085F864302C6738BD0122024B83F8642027
:1051800038BD00BF082F0002782F00020000040580
:1051900070B586B004460D460021049102F5C06248
:1051A000029208228DF80C20684601F064FA6378B8
:1051B000A27803EB02235942DAB2C9B258BF4A427D
:1051C0008DF801201A46002B14DB12128DF80220F4
:1051D000E3788DF80330B24B93F86430012B07D09D
:1051E000A26802F07F02AE4991F865108A4204D0AD
:1051F00006B070BD03F1FF02E7E7802D2FD0042B2E
:1052000034D0052B39D0082B55D0082B00F08C80DA
:10521000062B00F0DD80062BEAD1002DE8D12678A0
:10522000C6F300129E4B93F87C309A4200F0058141
:105230006FEA660606F007060023B34280F00B8192
:1052400097494A6F896F8A4280F013819449C86EEA
:10525000551C4D670133E15C8154DBB2EDE7904BA7
:10526000022283F864200A221A67C1E7602DC8D1A0
:1052700001228B4B83F86420BAE7402DC3D1884BC1
:10528000D86E60B12278C2F38102C2F10402211DFE
:1052900001F0EFF90122824B83F86420A8E78049EE
:1052A0004FF0006391F86620B1F868104FF4B060D9
:1052B000FFF718FAEEE7602DA7D1794A536F906F88
:1052C0001B1A0733DA43D20F002B1CDB744991F809
:1052D0007C105B0043EA01135BB213438DF800308E
:1052E00000236F4A526F90420FD9062B0DD801331D
:1052F0006B49CC6E551C4D67A15C06AA1A4402F896
:10530000181CDBB2EDE70023E0E76946002000F05F
:10531000FFFD634A92F87C30B3FA83F35B0982F8AD
:105320007C300A23136763E7202D7FF471AF237865
:10533000C3F300135A4A92F87C108B4224D0584A87
:10534000536F906F83422DD21B1A0733DA43D20F6B
:10535000002B2CDB5B0043EA01135BB213438DF897
:10536000003000234E4A526F904222D9062B20D89B
:1053700001334B49CC6E551C4D67A15C06AA1A44FB
:1053800002F8181CDBB2EDE71446464B92F8662093
:10539000B4F868104FF4B060FFF7A4F9022384F862
:1053A000643025E701223E4B83F8642020E7002388
:1053B000D0E76946002000F0ABFD394A92F87C3016
:1053C000B3FA83F35B0982F87C300A2313670FE793
:1053D000402D7FF420AF237813F0020F20D113F07B
:1053E000010F06D063682E4A926F934201D22C4A75
:1053F00093672B4C94F87C301B0143F0600306A9A3
:1054000001F8183D002000F083FD94F87C30B3FAD9
:1054100083F35B0984F87C300A22214B1A67E7E6A4
:10542000C3F381031E4DC3F10402211DE86E01F098
:1054300020F9012385F86430EEE7194C194B94F8F4
:105440006620B4F868104FF4B060FFF74BF9022300
:1054500084F8643009E00022237813F0010F00D1B2
:105460004AB101220E4B83F864200A220C4B1A67C2
:10547000BEE60122F0E70A4C94F87C301B0143F0B1
:10548000600306A901F8183D002000F041FD94F8E2
:105490007C30B3FA83F35B0984F87C30E5E700BF26
:1054A000082F0002000003054FF0200383F311884A
:1054B000BFF36F8FBFF34F8FFEE7FFFF0648006813
:1054C000006880F3088862B661B6BFF34F8FBFF300
:1054D0006F8F00DF00BF000008ED00E04FF0807329
:1054E00040F8043C21F0010140F8081C034B40F84F
:1054F0000C3C40F8202C4038704700BFA9540000F5
:10550000074B19680868B0E8F00F80F30988BFF30B
:105510006F8F4FF0000080F311884EF00D0E704732
:10552000842500024FF0200383F31188BFF36F8FAF
:10553000BFF34F8F024A136801331360704700BFF7
:10554000DC000002034A1368013B13600BB983F3CC
:1055500011887047DC000002FFFFFFFFFFFFFFFF25
:10556000EFF30980BFF36F8F0D4B1A6820E9F00F3E
:1055700010602DE908404FF0200080F31188FEF7FD
:1055800025FA4FF0000080F31188BDE80840196843
:105590000868B0E8F00F80F30988BFF36F8F704799
:1055A0008425000208B54FF0200383F31188BFF370
:1055B0006F8FBFF34F8FFEF797F818B14FF08052FF
:1055C000024B1A60002383F3118808BD04ED00E04C
:1055D000064B1B68064AA2FB03239B09013B054AB5
:1055E00013600722044B1A60704700BF9C30000212
:1055F000D34D621014E000E010E000E008B5094B64
:105600001A6842F0F0721A601A6842F060421A603A
:10561000FFF7DEFF0022044B1A60FFF74FFFFFF792
:1056200043FF00BF20ED00E0DC0000022DE9F04167
:105630008AB006460C46154600F0F6FD72B6B4F583
:10564000007F06D010D9B4F5806F02D0B4F5805F2A
:105650000DD100202F0B2B19013B4FEA133840B11D
:1056600062B60AB0BDE8F081B4F5807FF1D00C20BD
:10567000F0E7322305930697CDF81C8001A905A811
:105680001A4B984701980028EAD1342305930697CE
:10569000CDF81C80164B1B68164AA2FB03239B09FE
:1056A000089301A905A8114B984701980028D7D164
:1056B000322305930697CDF81C8001A905A80B4B52
:1056C000984701980028CBD1332305930695079678
:1056D0000894074B1B68074AA2FB03239B09099305
:1056E00001A905A8014B98470198B9E705020003F5
:1056F0009C300002D34D621008B510F0020F07D0A5
:105700000E4AB2F82035B3FA83F35B09A2F82035CC
:1057100010F0010F07D0094AB2F81E35B3FA83F32F
:105720005B09A2F81E354FF47C324FF480710448B7
:10573000FFF77CFF00B10C2008BD00BFE0000002B5
:1057400030050002002301391CD410B411E041F2ED
:10575000210080EA43039BB2013A12F0FF0205D018
:1057600013F4004FF3D15B009BB2F5E720460139FB
:1057700005D4441C027883EA02230822F0E7184685
:1057800010BC70471846704738B5234C2621204678
:10579000FFF7D8FF0546A821A4F1A800FFF7D2FF24
:1057A00004460023D12B08D81C4A995C03F57C32AF
:1057B0001278914203D10133F4E7012300E0002382
:1057C000174AB2F82025954203D0002343B10020A8
:1057D00038BD134AB2F81E259442F7D00023F5E7EE
:1057E000D2211048FCF7B4FD0D480F4BC0F85034DF
:1057F0000E4BC0F85434A0F81E45A0F820554FF4C5
:105800007C324FF4807100F58A60FFF70FFF08B11A
:10581000074838BD38BD00BFD8050002300500027A
:10582000E000000290720000A87200007872000090
:105830000C00000838B5044610F0010519D04FF4EB
:105840007C31174814F0020416D0164A121A00F0E0
:1058500010FF04221449154800F00BFF84B1144CCA
:1058600026212046FFF76EFF238D984206D00E2496
:1058700007E010490E48E5E7A822E8E7002400E029
:1058800000245DB1064DA8212846FFF75BFFB5F85F
:10589000CE30984202D000F059FC0D24204638BD8D
:1058A0003005000202060002CEF00300FE050002F1
:1058B000D8050002A8F0030020B9064B586BC0F3CE
:1058C0008A007047034B186B5A6B034B03EA024381
:1058D0001844704700000F400000FF1F00220A4BD1
:1058E0005A6341B908494B6B41F6FC7202EA8000E9
:1058F00018434863704782B21A635A6BC0F30C4076
:1059000010435863704700BF00000F40B0F1005FC4
:1059100004D0064BD86AC0F38A007047034B986ADC
:10592000DA6A034B03EA02431844704700000F4051
:105930000000FF1FB1F1005F11D0104B4FF6FF7256
:105940009A62DA6A22F4FF5222F01F02DA62DA6AFD
:1059500041F6FC7101EA80001043D862704782B2C0
:10596000064B9A62DA6A22F4FF5222F01F02DA62D0
:10597000DA6AC0F30C401043D862704700000F4051
:105980007F22074B5A62064B1B6A13F4004FFAD171
:10599000034B1862024B1B6A13F4004FFAD1704795
:1059A00000000F4079B1FF22084B5A62074B1B6A77
:1059B00013F4004FFAD1054B1862044B1B6A13F421
:1059C000004FFAD17047FB22EEE700BF00000F4006
:1059D00010B50446FFF7D4FF044A536B43F4004369
:1059E000536300212046FFF7DDFF10BD00000F408C
:1059F00010B50446FFF7C4FF044A536B23F4004379
:105A0000536300212046FFF7CDFF10BD00000F407B
:105A100010B50023002B3DD0394C012384F83430DD
:105A2000214641F8383B1823402204F5C760FCF7B3
:105A300081FA1823082204F5CA6104F5E260FCF734
:105A400079FA00F0F1FB272000F06CFC272000F031
:105A5000E9FC272000F0FCFC4B222A4B1A602A4B61
:105A6000D3F85C34591E294A914203D9284B264A5F
:105A7000C2F85C34DA00274B1B68B3FBF2F3013B3E
:105A800003F03F0343F40C531E4AD3600024C2F8D2
:105A900080410EE003F50071194A02EB81020021FA
:105AA00051600133DBB2B5E7601CC0B2FFF7A0FF65
:105AB00001341F2CF8DD184B202283F81B234FF0F4
:105AC00000621A60154B80225A66C3F8A82019217B
:105AD000612000F0E7FC2A21622000F0E3FC084886
:105AE0000123C82200F23C7100F5E560FCF722FAC0
:105AF000044A136823F041031360002010BD00BF67
:105B0000C826000200000F40E00000027F841E0053
:105B100090D003009C30000200E100E000800F40C4
:105B20002DE9F0410E4617461D4672B6002401E0ED
:105B30000134E4B21F2C23D83B4B1A680123A34045
:105B40001A42F5D0601CC0B2FFF71AFFB5F1005F32
:105B500014BF4FF000084FF001084046FFF7ACFEBD
:105B6000B042E5D14FF00050FFF7D0FEB842DFD190
:105B70002E4B5B6BC3F380339845D9D1012100E0F4
:105B80000021002942D100231F2B3FD8264A12684A
:105B90004FF0010808FA03F812EA080F02D00133A7
:105BA000DBB2F1E70133DCB22046FFF721FF2046EC
:105BB000FFF7E6FE29463846FFF7BCFE1B4BDA6AC4
:105BC00042F44042DA6200225A63B5F1005F14BF2A
:105BD000002101213046FFF781FEB5F1005F1AD0A8
:105BE000124A536B23F4804353634FF4A4520F4B78
:105BF0009A6300212046FFF7D5FE2046FFF7E8FE16
:105C0000094A136843EA08031360012149B92020B7
:105C100062B6BDE8F081054A536B43F48043536399
:105C2000E3E70020F4E700BFC826000200000F40B1
:105C3000254BD3F8003113F0010F03D1234B93F818
:105C4000343003B9704700B587B069462048FCF787
:105C5000A1F910B107B05DF804FB72B60120FFF79F
:105C6000C7FE0499B1F1005F14BF00210121029821
:105C7000FFF734FE144B5B6B049AB2F1005F20D047
:105C80004FF420421A43104B5A639DF80C2042F403
:105C9000094242F080029A63BDF80020DA63BDF841
:105CA00002201A64BDF804205A64BDF806209A64E4
:105CB00001210846FFF776FE0120FFF789FE62B654
:105CC000C8E74FF46042DDE700000F40C82600023D
:105CD000D82D0002F0B589B0454B1B690793079B8F
:105CE000202B74D8424BD3F84071D3F8443147EAA3
:105CF0000347002F75D0002419E000202BE0311D50
:105D000069443C48FCF71FF90136F6B29DF80C30A7
:105D1000043B9E42F3DB03E069463748FCF713F986
:105D200027EA050762B6002C4DD00134E4B21F2CDF
:105D3000DFD80125A5402F42F7D072B6601CC0B253
:105D4000FFF71EFE002CEBD0294B5B6B13F4804F4A
:105D5000D3D04FF000500490254EB36B03F00F03E7
:105D60008DF80C30003018BF0120FFF7A5FD029020
:105D7000F36BADF80030336CADF80230736CADF8F6
:105D80000430B36CADF806301C4BD3F804682EB168
:105D9000FCF76EF96946B0470028C1D0184B93F85C
:105DA000283003F5C063029A9A42B5D1049B002BB8
:105DB000B2D1009A134B9A42AED19DF80C30042B0D
:105DC000AAD90026A2E70020FFF732FFADE7084B73
:105DD0005B6813F0800F04D0054A136823F00103B9
:105DE0001360034A536823F01803536009B0F0BDF1
:105DF00000000F40F02D0002002D0002C826000216
:105E0000082F000222FF5F000B4B5B6813F0800F2E
:105E100001D003207047084B5B6813F0200F01D0BE
:105E200004207047044B5B6813F0400F01D005203D
:105E300070470020704700BF00000F4070B5044657
:105E40000E462D4B93F8345015B91524204670BDDD
:105E50002A4BD3F8003113F0010F06D02046FFF78C
:105E6000D3FF0028F4D02B2400E00024002CEDD137
:105E700072B60120FFF7BCFD3169B1F1005F14BFBC
:105E800000210121B068FFF729FD1C4B5B6B3269D3
:105E9000B2F1005F1CD04FF420421A43174B5A63F3
:105EA000327B42F4094242F080029A633288DA631C
:105EB00072881A64B2885A64F2889A64012108468A
:105EC000FFF770FD0120FFF783FD62B6002205E0B9
:105ED0004FF46042E1E72A46002AB7D1074BD3F8D6
:105EE000003113F0010FF6D0044B5B6813F0E00FA4
:105EF000F2D02A462B24EFE7C826000200000F400C
:105F000008B501460148FCF745F808BDF02D000230
:105F100008B572B60248FCF716F862B608BD00BFB5
:105F2000D82D000208B572B60248FCF733F862B605
:105F300008BD00BF002D000208B50A4AB2F9243797
:105F4000002B06DD1B1AA2F824370020FFF770FE95
:105F500008BD002BF9D14FF6FF72024BA3F824279E
:105F6000F3E700BFC82600020138C0F347107047AE
:105F7000013800F01F00704708B5054B1B6813B1CE
:105F8000044A106898470122034B5A6208BD00BFBB
:105F9000D02E0002D42E000200400A4008B5054B66
:105FA0001B6813B1044A506898470222034B5A6297
:105FB00008BD00BFD02E0002D42E000200400A40CF
:105FC00008B5054B1B6813B1044A90689847042232
:105FD000034B5A6208BD00BFD02E0002D42E00022F
:105FE00000400A4008B5054B1B6813B1044AD0684D
:105FF00098470822034B5A6208BD00BFD02E00020A
:10600000D42E000200400A4008B5054B1B6813B1AE
:10601000044A106998471022034B5A6208BD00BF1A
:10602000D02E0002D42E000200400A4008B5054BD5
:106030001B6813B1044A506998472022034B5A62E7
:1060400008BD00BFD02E0002D42E000200400A403E
:1060500008B5054B1B6813B1044A90699847402264
:10606000034B5A6208BD00BFD02E0002D42E00029E
:1060700000400A4008B5054B1B6813B1044AD069BB
:1060800098478022034B5A6208BD00BFD02E000201
:10609000D42E000200400A4030B583B0094D2C6870
:1060A00014442C60B4F5FA5F03D30748FCF750F9A9
:1060B000FBE7079C0194069C009492B2FDF7A2FABC
:1060C00003B030BD002F0002C072000010B582B0D6
:1060D0000446FDF703FB02AB43F8040D21461846C6
:1060E000FDF7F8FB02B010BD10B501220E4B1A707F
:1060F0000E4C00234FF0FF3219462068FDF75CFF7D
:106100000220FFF719FF0220FBF70AFD0220FCF72F
:106110006DF900231A4619462068FDF7C1FE0220DA
:10612000FFF7D4FFE4E700BFFC2E00029830000226
:10613000054B1B6833B110B5034B1C68FBF798FF88
:10614000A04710BD704700BFF42E000208B5FCF751
:1061500041F908BD00B583B0FBF7D2FE0322002150
:106160000120FDF782FE224B186000231A461946D3
:10617000FDF796FE0B2000F055F90B2000F068F9B2
:106180000D2000F04FF90D2000F062F90D2000F015
:10619000C9F80C2000F0C6F84FF0E05000F030F8DD
:1061A0001222144BC3F88021FCF772FB0120FFF789
:1061B00041FBC8B9FFF72CFCFCF7DCF8FCF798FBB7
:1061C000FBF722FDFBF778FDFBF7ABFCFCF78AFB46
:1061D000002301931E220092802207490748FFF7FF
:1061E0005BFF03B05DF804FBFFF7B0FFE2E700BF21
:1061F0009830000200400740B8720000E9600000DB
:1062000008B50E2000F08EF80F2000F08BF810205B
:1062100000F088F80B2000F085F80B2000F002F960
:106220000B2000F015F908BD08B500F095F8014BFA
:10623000186008BD9C30000200F03F0000FB011018
:106240007047FFFF10F0030003D0012803D00020A7
:10625000704702487047024B18687047001BB70030
:106260007072000008B5034BD3F8A000FFF7EAFFF7
:1062700008BD00BF0040074010B5054BD3F898415A
:10628000FFF7F0FF01462046FFF7D6FF10BD00BF25
:1062900000400740084BD3F88030DBB2012B06D01A
:1062A0001BB1022B06D00020704704487047044BF6
:1062B000186870470348704700400740001BB7004C
:1062C00070720000D8AC070008B50C4BD3F88430CE
:1062D000DBB2032B0FD8DFE803F00205080BFFF752
:1062E000D9FF08BDFFF7BEFF08BDFFF7C5FF08BD1A
:1062F000034B186808BD002008BD00BF00400740E0
:106300007472000008B5064BD3F8843013F0FF0F09
:1063100002D0FFF7D9FF08BDFFF7BCFF08BD00BFE3
:10632000004007401F2809D80A49D1F8C43001228B
:1063300002FA00F01843C1F8C40070470549D1F8CB
:10634000C8302038012202FA00F01843C1F8C80012
:10635000704700BF0040074008B5FFF7D3FF034B6D
:10636000D3F8C030B0FBF3F008BD00BF00400740D9
:1063700010B50C46FFF7F0FFB0FBF4F0013810BD8C
:1063800030B4026812F0010205D0036823F0430321
:106390001B051B0D03604C788D780B782C43234331
:1063A0004C68234303600B894362BC2383601AB1AA
:1063B000036843F00103036030BC704708B50B4B22
:1063C000984209D02920FFF7ADFF292000F02AF8D4
:1063D000292000F03DF808BD2A20FFF7A3FF2A205E
:1063E00000F020F82A2000F033F808BD00C0044077
:1063F0000B7803F00F03436042684B781B01DBB25C
:106400001343436042688B781B0203F470631343A9
:106410004360CB782BB14268013B1B039BB2134313
:10642000436070471F2807D808494B6C012202FAC5
:1064300000F018434864704704498B6C20380122EF
:1064400002FA00F018438864704700BF004007401C
:106450001F2808D809494B6C012202FA00F023EAF0
:1064600000004864704705498B6C2038012202FA0D
:1064700000F023EA00008864704700BF0040074036
:10648000074AD2F8083223F07E4323F0870320F036
:106490007E4020F0870023EA0003C2F808327047EC
:1064A0000040074030B400F00F03DB000009064D48
:1064B00055F82020FF249C4022EA04029940114311
:1064C00045F8201030BC70470080034010B400F045
:1064D0001F04C0090549703051F820300122A24044
:1064E00023EA020341F8203010BC704700800340CB
:1064F00010B504461620FFF715FF00232360FF2385
:10650000636040F2FF3363616FF07F43A36110BDAE
:1065100010B5C0F38334063CE4B22234E4B2204622
:10652000FFF700FF2046FFF77DFF2046FFF790FFB3
:1065300010BD30B441F4805501F1600300EBC30499
:106540006560012440F8334002F1A00340F8334075
:1065500004FA01F100EBC3035960816DA2400323EB
:106560009340DB43194094400C438465426D1340D3
:10657000436530BC704738B504460D46FFF7ECFE66
:10658000B0FBF5F0636843F004136360636843F0A5
:10659000081363600023E364C4F80031C4F8000208
:1065A0004FF48053C4F804330123C4F8003303F5D7
:1065B0000033236038BD38B504460D46B0F1804F36
:1065C00010D04FF40060FFF75BFF1C20FFF7AAFE1E
:1065D0001C20FFF727FF1C20FFF73AFF002363660C
:1065E000256038BD4FF48060FFF74AFF1B20FFF79E
:1065F00099FE1B20FFF716FF1B20FFF729FFEDE791
:1066000038B505460C46FFF7A7FEB0FBF4F000B91D
:106610000120C0B20138C0B22B6823F0FF03184339
:10662000286038BD10B50446036843F0804303601A
:10663000036823F4807303600349FFF7E1FF2368D5
:1066400023F48063236010BD20A10700023150F8BD
:10665000213023F07C731A4340F821207047023127
:1066600050F8213023F07C7323EA020240F8212005
:10667000704700F0DDB800F0F5B8FFFF0A4B0344A7
:1066800093F880309A0601D5303808E01A0701D512
:10669000573804E0DB064CBF37384FF0FF308842F4
:1066A000A8BF4FF0FF307047D07200002DE9F84FBF
:1066B000804615460346894629491C4614F8010BB5
:1066C000C8B10A1892F88020D20701D52346F4E712
:1066D000302810D158789C1C00F0DF02582A06D1CF
:1066E00035F010063AD1DC1C9878102508E0012618
:1066F00035B9082504E00DB1002601E02E460A2533
:106700000027BA46BB462946FFF7B8FF00280EDB34
:1067100005FB07073B0C05FB0A3ABAF5803FBFB201
:1067200028BF4FF0010B14F8010B0126EBE7B9F17C
:10673000000F05D00EB1013C00E04446C9F800400E
:10674000BBF1000F06D0074B22221A604FF0FF303A
:10675000BDE8F88F47EA0A40BDE8F88F0126CFE789
:10676000D0720000042F0002F7B50E46074605461A
:106770001A48294611F8014B94B1031993F8803057
:1067800013F0010301D00D46F3E72B2C06D02D2C7E
:106790000ABF4FF4007400240D4601E00D461C466C
:1067A00001A92846FFF782FF26B1019B9D4208BF41
:1067B0003B463360A30508D5404200280CDD084B5A
:1067C00022221A604FF0004006E00028BFBF044BB1
:1067D00022221A606FF0004003B0F0BDD0720000BA
:1067E000042F00020028B8BF4042704740EA01036E
:1067F0009B0730B510D105460C46214628460B684C
:1068000055F8042B04349A4206D1A2F1013323EA4D
:10681000020313F0803FF0D010F8013B11F8012B78
:10682000934201D0981A30BD002BF5D1184630BDE7
:1068300040EA0103DB0703460CD40346043A22BFB7
:1068400051F804CB43F804CBB2F10402F7D204327E
:1068500008BF7047013A24BF11F801CB03F801CB00
:10686000F8D87047034613F0030F0ED101F0FF0173
:1068700041EA012141EA0141043A24BF43F8041BE3
:10688000B2F10402F9D202F10402013A24BF03F882
:10689000011BFAE77047FFFF47697665206D6F645B
:1068A000756C65206E616D6520617320616E20617D
:1068B0007267756D656E742E0A00000064726976E9
:1068C0006500000074656C6573636F70650000009F
:1068D000556E6B6E6F776E206D6F64756C652027DB
:1068E0002573270A000000006D6178610000000038
:1068F0006D696E61000000006D617862000000004B
:106900006D696E620000000061636300646563008E
:10691000696E766572740000617373696E7600004B
:10692000556E6B6E6F776E20706172616D65746508
:106930007220272573270A0057726F6E67207479BB
:106940007065206F6620617267756D656E74732E59
:1069500020417267756D656E747320686173207471
:106960006F2062653A0A202020537472696E672C8A
:1069700020737472696E6720616E6420696E74653D
:106980006765722E0A000000257320706172616DC8
:1069900065746572733A0A2020204D617820537027
:1069A00065656420413A2025750A2020204D696ED6
:1069B00020537065656420413A2025750A20202007
:1069C0004D617820537065656420423A2025750A30
:1069D0002020204D696E20537065656420423A2066
:1069E00025750A202020416363656C6572617469B6
:1069F0006F6E3A2025750A202020446563656C651A
:106A0000726174696F6E3A2025750A202020496EE4
:106A1000766572743A2025750A20202041737365CB
:106A20006D626C7920496E766572743A2025750A1C
:106A300000FFFFFF53595354454D205354415455C3
:106A4000533A0A00546F74616C2063757272656EFC
:106A5000743A202575206D410A0000004765617277
:106A60003A2025750A0000004472697665203100DD
:106A7000447269766520320034574420737461741F
:106A8000653A2025752C2063757272656E743A2004
:106A90002569206D410A000054656C6573636F7051
:106AA00065000000656D63793A2025752C207365BB
:106AB00061742073773A2025752C2069676E6B65A9
:106AC000792073746174653A2025752C2066736291
:106AD000206865617274626561742065787069729E
